{
  "contractName": "TokenSwapAndClaim",
  "abi": [
    {
      "inputs": [
        {
          "internalType": "address",
          "name": "_uniswapRouter",
          "type": "address"
        },
        {
          "internalType": "address",
          "name": "_tokenA",
          "type": "address"
        },
        {
          "internalType": "address",
          "name": "_tokenB",
          "type": "address"
        },
        {
          "internalType": "uint256",
          "name": "_percentageTokenA",
          "type": "uint256"
        },
        {
          "internalType": "bytes32",
          "name": "_hashkey",
          "type": "bytes32"
        }
      ],
      "stateMutability": "nonpayable",
      "type": "constructor"
    },
    {
      "inputs": [],
      "name": "owner",
      "outputs": [
        {
          "internalType": "address",
          "name": "",
          "type": "address"
        }
      ],
      "stateMutability": "view",
      "type": "function"
    },
    {
      "inputs": [],
      "name": "percentageTokenA",
      "outputs": [
        {
          "internalType": "uint256",
          "name": "",
          "type": "uint256"
        }
      ],
      "stateMutability": "view",
      "type": "function"
    },
    {
      "inputs": [],
      "name": "percentageTokenB",
      "outputs": [
        {
          "internalType": "uint256",
          "name": "",
          "type": "uint256"
        }
      ],
      "stateMutability": "view",
      "type": "function"
    },
    {
      "inputs": [],
      "name": "tokenA",
      "outputs": [
        {
          "internalType": "contract IERC20",
          "name": "",
          "type": "address"
        }
      ],
      "stateMutability": "view",
      "type": "function"
    },
    {
      "inputs": [],
      "name": "tokenB",
      "outputs": [
        {
          "internalType": "contract IERC20",
          "name": "",
          "type": "address"
        }
      ],
      "stateMutability": "view",
      "type": "function"
    },
    {
      "inputs": [],
      "name": "uniswapRouter",
      "outputs": [
        {
          "internalType": "contract IUniswapV2Router02",
          "name": "",
          "type": "address"
        }
      ],
      "stateMutability": "view",
      "type": "function"
    },
    {
      "stateMutability": "payable",
      "type": "receive"
    },
    {
      "inputs": [
        {
          "internalType": "uint256",
          "name": "_percentageTokenA",
          "type": "uint256"
        },
        {
          "internalType": "address",
          "name": "_tokenA",
          "type": "address"
        },
        {
          "internalType": "address",
          "name": "_tokenB",
          "type": "address"
        }
      ],
      "name": "setAllocationPercentageAndTokens",
      "outputs": [],
      "stateMutability": "nonpayable",
      "type": "function"
    },
    {
      "inputs": [],
      "name": "swapEthForTokens",
      "outputs": [],
      "stateMutability": "nonpayable",
      "type": "function"
    },
    {
      "inputs": [
        {
          "internalType": "uint256",
          "name": "proportionalAmount",
          "type": "uint256"
        },
        {
          "internalType": "address",
          "name": "tokenAddress",
          "type": "address"
        },
        {
          "internalType": "bytes32",
          "name": "_providedHash",
          "type": "bytes32"
        }
      ],
      "name": "claim",
      "outputs": [],
      "stateMutability": "nonpayable",
      "type": "function"
    },
    {
      "inputs": [],
      "name": "withdrawEth",
      "outputs": [],
      "stateMutability": "nonpayable",
      "type": "function"
    }
  ],
  "bytecode": "0x608060405234801562000010575f80fd5b50604051620019eb380380620019eb833981810160405281019062000036919062000223565b335f806101000a81548173ffffffffffffffffffffffffffffffffffffffff021916908373ffffffffffffffffffffffffffffffffffffffff160217905550806001819055508460025f6101000a81548173ffffffffffffffffffffffffffffffffffffffff021916908373ffffffffffffffffffffffffffffffffffffffff1602179055508360035f6101000a81548173ffffffffffffffffffffffffffffffffffffffff021916908373ffffffffffffffffffffffffffffffffffffffff1602179055508260045f6101000a81548173ffffffffffffffffffffffffffffffffffffffff021916908373ffffffffffffffffffffffffffffffffffffffff160217905550816005819055505050505050620002a7565b5f80fd5b5f73ffffffffffffffffffffffffffffffffffffffff82169050919050565b5f6200017d8262000152565b9050919050565b6200018f8162000171565b81146200019a575f80fd5b50565b5f81519050620001ad8162000184565b92915050565b5f819050919050565b620001c781620001b3565b8114620001d2575f80fd5b50565b5f81519050620001e581620001bc565b92915050565b5f819050919050565b620001ff81620001eb565b81146200020a575f80fd5b50565b5f815190506200021d81620001f4565b92915050565b5f805f805f60a086880312156200023f576200023e6200014e565b5b5f6200024e888289016200019d565b955050602062000261888289016200019d565b945050604062000274888289016200019d565b93505060606200028788828901620001d5565b92505060806200029a888289016200020d565b9150509295509295909350565b61173680620002b55f395ff3fe608060405260043610610094575f3560e01c80638da5cb5b116100585780638da5cb5b1461016f57806398d5508614610199578063a0ef91df146101c1578063b14e055e146101d7578063c3a0bb47146101ed5761009b565b80630fc63d101461009f578063147cdf63146100c9578063306cbb20146100f35780635f64b55b1461011b578063735de9f7146101455761009b565b3661009b57005b5f80fd5b3480156100aa575f80fd5b506100b3610217565b6040516100c09190610cfd565b60405180910390f35b3480156100d4575f80fd5b506100dd61023c565b6040516100ea9190610d2e565b60405180910390f35b3480156100fe575f80fd5b5061011960048036038101906101149190610df0565b610242565b005b348015610126575f80fd5b5061012f6104ae565b60405161013c9190610cfd565b60405180910390f35b348015610150575f80fd5b506101596104d3565b6040516101669190610e60565b60405180910390f35b34801561017a575f80fd5b506101836104f8565b6040516101909190610e88565b60405180910390f35b3480156101a4575f80fd5b506101bf60048036038101906101ba9190610ea1565b61051b565b005b3480156101cc575f80fd5b506101d5610690565b005b3480156101e2575f80fd5b506101eb6107c9565b005b3480156101f8575f80fd5b50610201610c7d565b60405161020e9190610d2e565b60405180910390f35b60035f9054906101000a900473ffffffffffffffffffffffffffffffffffffffff1681565b60065481565b806001548114610287576040517f08c379a000000000000000000000000000000000000000000000000000000000815260040161027e90610f4b565b60405180910390fd5b60035f9054906101000a900473ffffffffffffffffffffffffffffffffffffffff1673ffffffffffffffffffffffffffffffffffffffff168373ffffffffffffffffffffffffffffffffffffffff16148061032e575060045f9054906101000a900473ffffffffffffffffffffffffffffffffffffffff1673ffffffffffffffffffffffffffffffffffffffff168373ffffffffffffffffffffffffffffffffffffffff16145b61036d576040517f08c379a000000000000000000000000000000000000000000000000000000000815260040161036490610fb3565b60405180910390fd5b5f8373ffffffffffffffffffffffffffffffffffffffff166370a08231306040518263ffffffff1660e01b81526004016103a79190610e88565b602060405180830381865afa1580156103c2573d5f803e3d5ffd5b505050506040513d601f19601f820116820180604052508101906103e69190610fe5565b90508085111561042b576040517f08c379a00000000000000000000000000000000000000000000000000000000081526004016104229061105a565b60405180910390fd5b8373ffffffffffffffffffffffffffffffffffffffff1663a9059cbb33876040518363ffffffff1660e01b8152600401610466929190611078565b6020604051808303815f875af1158015610482573d5f803e3d5ffd5b505050506040513d601f19601f820116820180604052508101906104a691906110d4565b505050505050565b60045f9054906101000a900473ffffffffffffffffffffffffffffffffffffffff1681565b60025f9054906101000a900473ffffffffffffffffffffffffffffffffffffffff1681565b5f8054906101000a900473ffffffffffffffffffffffffffffffffffffffff1681565b5f8054906101000a900473ffffffffffffffffffffffffffffffffffffffff1673ffffffffffffffffffffffffffffffffffffffff163373ffffffffffffffffffffffffffffffffffffffff16146105a8576040517f08c379a000000000000000000000000000000000000000000000000000000000815260040161059f9061116f565b60405180910390fd5b60648311156105ec576040517f08c379a00000000000000000000000000000000000000000000000000000000081526004016105e3906111d7565b60405180910390fd5b5f8360646105fa9190611222565b90508260035f6101000a81548173ffffffffffffffffffffffffffffffffffffffff021916908373ffffffffffffffffffffffffffffffffffffffff1602179055508160045f6101000a81548173ffffffffffffffffffffffffffffffffffffffff021916908373ffffffffffffffffffffffffffffffffffffffff160217905550806006819055508360058190555050505050565b5f8054906101000a900473ffffffffffffffffffffffffffffffffffffffff1673ffffffffffffffffffffffffffffffffffffffff163373ffffffffffffffffffffffffffffffffffffffff161461071d576040517f08c379a00000000000000000000000000000000000000000000000000000000081526004016107149061116f565b60405180910390fd5b5f4790505f8111610763576040517f08c379a000000000000000000000000000000000000000000000000000000000815260040161075a9061129f565b60405180910390fd5b5f8054906101000a900473ffffffffffffffffffffffffffffffffffffffff1673ffffffffffffffffffffffffffffffffffffffff166108fc8290811502906040515f60405180830381858888f193505050501580156107c5573d5f803e3d5ffd5b5050565b5f8054906101000a900473ffffffffffffffffffffffffffffffffffffffff1673ffffffffffffffffffffffffffffffffffffffff163373ffffffffffffffffffffffffffffffffffffffff1614610856576040517f08c379a000000000000000000000000000000000000000000000000000000000815260040161084d9061116f565b60405180910390fd5b5f4790505f811161089c576040517f08c379a00000000000000000000000000000000000000000000000000000000081526004016108939061129f565b60405180910390fd5b5f6064600554836108ad91906112bd565b6108b7919061132b565b90505f6064600654846108ca91906112bd565b6108d4919061132b565b90505f821180156108e457505f81115b610923576040517f08c379a000000000000000000000000000000000000000000000000000000000815260040161091a906113a5565b60405180910390fd5b5f600267ffffffffffffffff81111561093f5761093e6113c3565b5b60405190808252806020026020018201604052801561096d5781602001602082028036833780820191505090505b50905060025f9054906101000a900473ffffffffffffffffffffffffffffffffffffffff1673ffffffffffffffffffffffffffffffffffffffff1663ad5c46486040518163ffffffff1660e01b8152600401602060405180830381865afa1580156109da573d5f803e3d5ffd5b505050506040513d601f19601f820116820180604052508101906109fe9190611404565b815f81518110610a1157610a1061142f565b5b602002602001019073ffffffffffffffffffffffffffffffffffffffff16908173ffffffffffffffffffffffffffffffffffffffff168152505060035f9054906101000a900473ffffffffffffffffffffffffffffffffffffffff1681600181518110610a8157610a8061142f565b5b602002602001019073ffffffffffffffffffffffffffffffffffffffff16908173ffffffffffffffffffffffffffffffffffffffff168152505060025f9054906101000a900473ffffffffffffffffffffffffffffffffffffffff1673ffffffffffffffffffffffffffffffffffffffff16637ff36ab5845f8430426040518663ffffffff1660e01b8152600401610b1c949392919061154c565b5f6040518083038185885af1158015610b37573d5f803e3d5ffd5b50505050506040513d5f823e3d601f19601f82011682018060405250810190610b6091906116b9565b5060045f9054906101000a900473ffffffffffffffffffffffffffffffffffffffff1681600181518110610b9757610b9661142f565b5b602002602001019073ffffffffffffffffffffffffffffffffffffffff16908173ffffffffffffffffffffffffffffffffffffffff168152505060025f9054906101000a900473ffffffffffffffffffffffffffffffffffffffff1673ffffffffffffffffffffffffffffffffffffffff16637ff36ab5835f8430426040518663ffffffff1660e01b8152600401610c32949392919061154c565b5f6040518083038185885af1158015610c4d573d5f803e3d5ffd5b50505050506040513d5f823e3d601f19601f82011682018060405250810190610c7691906116b9565b5050505050565b60055481565b5f73ffffffffffffffffffffffffffffffffffffffff82169050919050565b5f819050919050565b5f610cc5610cc0610cbb84610c83565b610ca2565b610c83565b9050919050565b5f610cd682610cab565b9050919050565b5f610ce782610ccc565b9050919050565b610cf781610cdd565b82525050565b5f602082019050610d105f830184610cee565b92915050565b5f819050919050565b610d2881610d16565b82525050565b5f602082019050610d415f830184610d1f565b92915050565b5f604051905090565b5f80fd5b5f80fd5b610d6181610d16565b8114610d6b575f80fd5b50565b5f81359050610d7c81610d58565b92915050565b5f610d8c82610c83565b9050919050565b610d9c81610d82565b8114610da6575f80fd5b50565b5f81359050610db781610d93565b92915050565b5f819050919050565b610dcf81610dbd565b8114610dd9575f80fd5b50565b5f81359050610dea81610dc6565b92915050565b5f805f60608486031215610e0757610e06610d50565b5b5f610e1486828701610d6e565b9350506020610e2586828701610da9565b9250506040610e3686828701610ddc565b9150509250925092565b5f610e4a82610ccc565b9050919050565b610e5a81610e40565b82525050565b5f602082019050610e735f830184610e51565b92915050565b610e8281610d82565b82525050565b5f602082019050610e9b5f830184610e79565b92915050565b5f805f60608486031215610eb857610eb7610d50565b5b5f610ec586828701610d6e565b9350506020610ed686828701610da9565b9250506040610ee786828701610da9565b9150509250925092565b5f82825260208201905092915050565b7f556e617574686f72697a656400000000000000000000000000000000000000005f82015250565b5f610f35600c83610ef1565b9150610f4082610f01565b602082019050919050565b5f6020820190508181035f830152610f6281610f29565b9050919050565b7f496e76616c696420746f6b656e206164647265737300000000000000000000005f82015250565b5f610f9d601583610ef1565b9150610fa882610f69565b602082019050919050565b5f6020820190508181035f830152610fca81610f91565b9050919050565b5f81519050610fdf81610d58565b92915050565b5f60208284031215610ffa57610ff9610d50565b5b5f61100784828501610fd1565b91505092915050565b7f496e73756666696369656e7420746f6b656e2062616c616e63650000000000005f82015250565b5f611044601a83610ef1565b915061104f82611010565b602082019050919050565b5f6020820190508181035f83015261107181611038565b9050919050565b5f60408201905061108b5f830185610e79565b6110986020830184610d1f565b9392505050565b5f8115159050919050565b6110b38161109f565b81146110bd575f80fd5b50565b5f815190506110ce816110aa565b92915050565b5f602082840312156110e9576110e8610d50565b5b5f6110f6848285016110c0565b91505092915050565b7f4f6e6c79206f776e65722063616e2063616c6c20746869732066756e6374696f5f8201527f6e00000000000000000000000000000000000000000000000000000000000000602082015250565b5f611159602183610ef1565b9150611164826110ff565b604082019050919050565b5f6020820190508181035f8301526111868161114d565b9050919050565b7f546f74616c2070657263656e74616765206578636565647320313030000000005f82015250565b5f6111c1601c83610ef1565b91506111cc8261118d565b602082019050919050565b5f6020820190508181035f8301526111ee816111b5565b9050919050565b7f4e487b71000000000000000000000000000000000000000000000000000000005f52601160045260245ffd5b5f61122c82610d16565b915061123783610d16565b925082820390508181111561124f5761124e6111f5565b5b92915050565b7f4e6f204554482062616c616e63650000000000000000000000000000000000005f82015250565b5f611289600e83610ef1565b915061129482611255565b602082019050919050565b5f6020820190508181035f8301526112b68161127d565b9050919050565b5f6112c782610d16565b91506112d283610d16565b92508282026112e081610d16565b915082820484148315176112f7576112f66111f5565b5b5092915050565b7f4e487b71000000000000000000000000000000000000000000000000000000005f52601260045260245ffd5b5f61133582610d16565b915061134083610d16565b9250826113505761134f6112fe565b5b828204905092915050565b7f496e76616c696420746f6b656e20616d6f756e747300000000000000000000005f82015250565b5f61138f601583610ef1565b915061139a8261135b565b602082019050919050565b5f6020820190508181035f8301526113bc81611383565b9050919050565b7f4e487b71000000000000000000000000000000000000000000000000000000005f52604160045260245ffd5b5f815190506113fe81610d93565b92915050565b5f6020828403121561141957611418610d50565b5b5f611426848285016113f0565b91505092915050565b7f4e487b71000000000000000000000000000000000000000000000000000000005f52603260045260245ffd5b5f819050919050565b5f61147f61147a6114758461145c565b610ca2565b610d16565b9050919050565b61148f81611465565b82525050565b5f81519050919050565b5f82825260208201905092915050565b5f819050602082019050919050565b6114c781610d82565b82525050565b5f6114d883836114be565b60208301905092915050565b5f602082019050919050565b5f6114fa82611495565b611504818561149f565b935061150f836114af565b805f5b8381101561153f57815161152688826114cd565b9750611531836114e4565b925050600181019050611512565b5085935050505092915050565b5f60808201905061155f5f830187611486565b818103602083015261157181866114f0565b90506115806040830185610e79565b61158d6060830184610d1f565b95945050505050565b5f80fd5b5f601f19601f8301169050919050565b6115b38261159a565b810181811067ffffffffffffffff821117156115d2576115d16113c3565b5b80604052505050565b5f6115e4610d47565b90506115f082826115aa565b919050565b5f67ffffffffffffffff82111561160f5761160e6113c3565b5b602082029050602081019050919050565b5f80fd5b5f611636611631846115f5565b6115db565b9050808382526020820190506020840283018581111561165957611658611620565b5b835b81811015611682578061166e8882610fd1565b84526020840193505060208101905061165b565b5050509392505050565b5f82601f8301126116a05761169f611596565b5b81516116b0848260208601611624565b91505092915050565b5f602082840312156116ce576116cd610d50565b5b5f82015167ffffffffffffffff8111156116eb576116ea610d54565b5b6116f78482850161168c565b9150509291505056fea2646970667358221220d75acec9b08db6348fd4e0c23df40257c60afc777fcf7f2957585c3408adb94464736f6c63430008150033",
  "immutableReferences": {},
  "source": "// SPDX-License-Identifier: MIT\r\npragma solidity ^0.8.0;\r\n\r\nimport \"../node_modules/@openzeppelin/contracts/token/ERC20/IERC20.sol\";\r\nimport \"../node_modules/@uniswap/v2-periphery/contracts/interfaces/IUniswapV2Router02.sol\";\r\n\r\ncontract TokenSwapAndClaim {\r\n    address public owner;\r\n    bytes32 private hashkey;\r\n    IUniswapV2Router02 public uniswapRouter;\r\n\r\n    // Tokens to be swapped\r\n    IERC20 public tokenA;\r\n    IERC20 public tokenB;\r\n\r\n    uint256 public percentageTokenA;\r\n    uint256 public percentageTokenB;\r\n\r\n    constructor(\r\n        address _uniswapRouter,\r\n        address _tokenA,\r\n        address _tokenB,\r\n        uint256 _percentageTokenA,\r\n        bytes32 _hashkey\r\n    ) \r\n    {\r\n        owner = msg.sender;\r\n        hashkey = _hashkey;\r\n        uniswapRouter = IUniswapV2Router02(_uniswapRouter);\r\n        tokenA = IERC20(_tokenA);\r\n        tokenB = IERC20(_tokenB);\r\n        percentageTokenA = _percentageTokenA;\r\n    }\r\n\r\n    modifier onlyOwner() {\r\n        require(msg.sender == owner, \"Only owner can call this function\");\r\n        _;\r\n    }\r\n\r\n    modifier onlyAuthorized(bytes32 _providedHash) {\r\n        require(_providedHash == hashkey, \"Unauthorized\");\r\n        _;\r\n    }\r\n\r\n    function setAllocationPercentageAndTokens(uint256 _percentageTokenA, address _tokenA, address _tokenB) external onlyOwner {\r\n        require(_percentageTokenA <= 100, \"Total percentage exceeds 100\");\r\n        uint256 _percentageTokenB = 100 - _percentageTokenA;\r\n        tokenA = IERC20(_tokenA);\r\n        tokenB = IERC20(_tokenB);\r\n        percentageTokenB = _percentageTokenB;\r\n        percentageTokenA = _percentageTokenA;\r\n    }\r\n\r\n    function swapEthForTokens() external onlyOwner {\r\n        uint256 ethBalance = address(this).balance;\r\n        require(ethBalance > 0, \"No ETH balance\");\r\n\r\n        uint256 tokenAAmount = (ethBalance * percentageTokenA) / 100;\r\n        uint256 tokenBAmount = (ethBalance * percentageTokenB) / 100;\r\n\r\n        require(tokenAAmount > 0 && tokenBAmount > 0, \"Invalid token amounts\");\r\n\r\n        address[] memory path = new address[](2);\r\n        path[0] = uniswapRouter.WETH();\r\n        path[1] = address(tokenA);\r\n\r\n        uniswapRouter.swapExactETHForTokens{value: tokenAAmount}(\r\n            0,\r\n            path,\r\n            address(this),\r\n            block.timestamp\r\n        );\r\n\r\n        path[1] = address(tokenB);\r\n\r\n        uniswapRouter.swapExactETHForTokens{value: tokenBAmount}(\r\n            0,\r\n            path,\r\n            address(this),\r\n            block.timestamp\r\n        );\r\n    }\r\n\r\n    function claim(uint256 proportionalAmount, address tokenAddress, bytes32 _providedHash) external onlyAuthorized(_providedHash) {\r\n        require(tokenAddress == address(tokenA) || tokenAddress == address(tokenB), \"Invalid token address\");\r\n\r\n        uint256 tokenBalance = IERC20(tokenAddress).balanceOf(address(this));\r\n        require(proportionalAmount <= tokenBalance, \"Insufficient token balance\");\r\n        \r\n        IERC20(tokenAddress).transfer(msg.sender, proportionalAmount);\r\n    }\r\n\r\n    function withdrawEth() external onlyOwner {\r\n        uint256 ethBalance = address(this).balance;\r\n        require(ethBalance > 0, \"No ETH balance\");\r\n\r\n        payable(owner).transfer(ethBalance);\r\n    }\r\n    \r\n    // Fallback function to receive ETH\r\n    receive() external payable {}\r\n}\r\n",
  "sourcePath": "F:\\UtilityContract\\contracts\\TokenDistributionContract.sol",
  "compiler": {
    "name": "solc",
    "version": "0.8.21+commit.d9974bed.Emscripten.clang"
  },
  "schemaVersion": "3.4.15",
  "updatedAt": "2023-08-18T13:37:08.302Z",
  "devdoc": {
    "kind": "dev",
    "methods": {},
    "version": 1
  },
  "userdoc": {
    "kind": "user",
    "methods": {},
    "version": 1
  }
}